{
  "contractName": "Buffalos",
  "abi": [
    {
      "inputs": [
        {
          "internalType": "string",
          "name": "name",
          "type": "string"
        },
        {
          "internalType": "string",
          "name": "symbol",
          "type": "string"
        },
        {
          "internalType": "string",
          "name": "URI",
          "type": "string"
        },
        {
          "internalType": "uint256",
          "name": "initialSupply",
          "type": "uint256"
        },
        {
          "internalType": "uint256",
          "name": "startDate",
          "type": "uint256"
        },
        {
          "internalType": "address",
          "name": "_artist",
          "type": "address"
        },
        {
          "internalType": "address",
          "name": "_txFeeToken",
          "type": "address"
        },
        {
          "internalType": "uint256",
          "name": "_txFeeAmount",
          "type": "uint256"
        }
      ],
      "stateMutability": "nonpayable",
      "type": "constructor"
    },
    {
      "anonymous": false,
      "inputs": [
        {
          "indexed": true,
          "internalType": "address",
          "name": "owner",
          "type": "address"
        },
        {
          "indexed": true,
          "internalType": "address",
          "name": "approved",
          "type": "address"
        },
        {
          "indexed": true,
          "internalType": "uint256",
          "name": "tokenId",
          "type": "uint256"
        }
      ],
      "name": "Approval",
      "type": "event"
    },
    {
      "anonymous": false,
      "inputs": [
        {
          "indexed": true,
          "internalType": "address",
          "name": "owner",
          "type": "address"
        },
        {
          "indexed": true,
          "internalType": "address",
          "name": "operator",
          "type": "address"
        },
        {
          "indexed": false,
          "internalType": "bool",
          "name": "approved",
          "type": "bool"
        }
      ],
      "name": "ApprovalForAll",
      "type": "event"
    },
    {
      "anonymous": false,
      "inputs": [
        {
          "indexed": false,
          "internalType": "address",
          "name": "buyer",
          "type": "address"
        },
        {
          "indexed": false,
          "internalType": "uint256",
          "name": "amount",
          "type": "uint256"
        }
      ],
      "name": "BuffaloBought",
      "type": "event"
    },
    {
      "anonymous": false,
      "inputs": [
        {
          "indexed": true,
          "internalType": "address",
          "name": "previousOwner",
          "type": "address"
        },
        {
          "indexed": true,
          "internalType": "address",
          "name": "newOwner",
          "type": "address"
        }
      ],
      "name": "OwnershipTransferred",
      "type": "event"
    },
    {
      "anonymous": false,
      "inputs": [
        {
          "indexed": true,
          "internalType": "address",
          "name": "from",
          "type": "address"
        },
        {
          "indexed": true,
          "internalType": "address",
          "name": "to",
          "type": "address"
        },
        {
          "indexed": true,
          "internalType": "uint256",
          "name": "tokenId",
          "type": "uint256"
        }
      ],
      "name": "Transfer",
      "type": "event"
    },
    {
      "inputs": [],
      "name": "BASE_RATE",
      "outputs": [
        {
          "internalType": "uint256",
          "name": "",
          "type": "uint256"
        }
      ],
      "stateMutability": "view",
      "type": "function"
    },
    {
      "inputs": [],
      "name": "MAX_SUPPLY",
      "outputs": [
        {
          "internalType": "uint256",
          "name": "",
          "type": "uint256"
        }
      ],
      "stateMutability": "view",
      "type": "function"
    },
    {
      "inputs": [
        {
          "internalType": "address",
          "name": "to",
          "type": "address"
        },
        {
          "internalType": "uint256",
          "name": "tokenId",
          "type": "uint256"
        }
      ],
      "name": "approve",
      "outputs": [],
      "stateMutability": "nonpayable",
      "type": "function"
    },
    {
      "inputs": [],
      "name": "artist",
      "outputs": [
        {
          "internalType": "address",
          "name": "",
          "type": "address"
        }
      ],
      "stateMutability": "view",
      "type": "function"
    },
    {
      "inputs": [
        {
          "internalType": "address",
          "name": "owner",
          "type": "address"
        }
      ],
      "name": "balanceOf",
      "outputs": [
        {
          "internalType": "uint256",
          "name": "",
          "type": "uint256"
        }
      ],
      "stateMutability": "view",
      "type": "function"
    },
    {
      "inputs": [],
      "name": "baseURI",
      "outputs": [
        {
          "internalType": "string",
          "name": "",
          "type": "string"
        }
      ],
      "stateMutability": "view",
      "type": "function"
    },
    {
      "inputs": [],
      "name": "blockStart",
      "outputs": [
        {
          "internalType": "uint256",
          "name": "",
          "type": "uint256"
        }
      ],
      "stateMutability": "view",
      "type": "function"
    },
    {
      "inputs": [],
      "name": "cost",
      "outputs": [
        {
          "internalType": "uint256",
          "name": "",
          "type": "uint256"
        }
      ],
      "stateMutability": "view",
      "type": "function"
    },
    {
      "inputs": [
        {
          "internalType": "address",
          "name": "",
          "type": "address"
        }
      ],
      "name": "excludedList",
      "outputs": [
        {
          "internalType": "bool",
          "name": "",
          "type": "bool"
        }
      ],
      "stateMutability": "view",
      "type": "function"
    },
    {
      "inputs": [
        {
          "internalType": "uint256",
          "name": "tokenId",
          "type": "uint256"
        }
      ],
      "name": "getApproved",
      "outputs": [
        {
          "internalType": "address",
          "name": "",
          "type": "address"
        }
      ],
      "stateMutability": "view",
      "type": "function"
    },
    {
      "inputs": [
        {
          "internalType": "address",
          "name": "owner",
          "type": "address"
        },
        {
          "internalType": "address",
          "name": "operator",
          "type": "address"
        }
      ],
      "name": "isApprovedForAll",
      "outputs": [
        {
          "internalType": "bool",
          "name": "",
          "type": "bool"
        }
      ],
      "stateMutability": "view",
      "type": "function"
    },
    {
      "inputs": [],
      "name": "maxMintAmount",
      "outputs": [
        {
          "internalType": "uint256",
          "name": "",
          "type": "uint256"
        }
      ],
      "stateMutability": "view",
      "type": "function"
    },
    {
      "inputs": [],
      "name": "maxSupply",
      "outputs": [
        {
          "internalType": "uint256",
          "name": "",
          "type": "uint256"
        }
      ],
      "stateMutability": "view",
      "type": "function"
    },
    {
      "inputs": [],
      "name": "metaDataExt",
      "outputs": [
        {
          "internalType": "string",
          "name": "",
          "type": "string"
        }
      ],
      "stateMutability": "view",
      "type": "function"
    },
    {
      "inputs": [],
      "name": "mintable",
      "outputs": [
        {
          "internalType": "bool",
          "name": "",
          "type": "bool"
        }
      ],
      "stateMutability": "view",
      "type": "function"
    },
    {
      "inputs": [],
      "name": "name",
      "outputs": [
        {
          "internalType": "string",
          "name": "",
          "type": "string"
        }
      ],
      "stateMutability": "view",
      "type": "function"
    },
    {
      "inputs": [],
      "name": "nftName",
      "outputs": [
        {
          "internalType": "string",
          "name": "",
          "type": "string"
        }
      ],
      "stateMutability": "view",
      "type": "function"
    },
    {
      "inputs": [],
      "name": "nftUnit",
      "outputs": [
        {
          "internalType": "string",
          "name": "",
          "type": "string"
        }
      ],
      "stateMutability": "view",
      "type": "function"
    },
    {
      "inputs": [],
      "name": "owner",
      "outputs": [
        {
          "internalType": "address",
          "name": "",
          "type": "address"
        }
      ],
      "stateMutability": "view",
      "type": "function"
    },
    {
      "inputs": [
        {
          "internalType": "uint256",
          "name": "tokenId",
          "type": "uint256"
        }
      ],
      "name": "ownerOf",
      "outputs": [
        {
          "internalType": "address",
          "name": "",
          "type": "address"
        }
      ],
      "stateMutability": "view",
      "type": "function"
    },
    {
      "inputs": [],
      "name": "renounceOwnership",
      "outputs": [],
      "stateMutability": "nonpayable",
      "type": "function"
    },
    {
      "inputs": [
        {
          "internalType": "address",
          "name": "operator",
          "type": "address"
        },
        {
          "internalType": "bool",
          "name": "approved",
          "type": "bool"
        }
      ],
      "name": "setApprovalForAll",
      "outputs": [],
      "stateMutability": "nonpayable",
      "type": "function"
    },
    {
      "inputs": [
        {
          "internalType": "bytes4",
          "name": "interfaceId",
          "type": "bytes4"
        }
      ],
      "name": "supportsInterface",
      "outputs": [
        {
          "internalType": "bool",
          "name": "",
          "type": "bool"
        }
      ],
      "stateMutability": "view",
      "type": "function"
    },
    {
      "inputs": [],
      "name": "symbol",
      "outputs": [
        {
          "internalType": "string",
          "name": "",
          "type": "string"
        }
      ],
      "stateMutability": "view",
      "type": "function"
    },
    {
      "inputs": [
        {
          "internalType": "uint256",
          "name": "index",
          "type": "uint256"
        }
      ],
      "name": "tokenByIndex",
      "outputs": [
        {
          "internalType": "uint256",
          "name": "",
          "type": "uint256"
        }
      ],
      "stateMutability": "view",
      "type": "function"
    },
    {
      "inputs": [
        {
          "internalType": "address",
          "name": "owner",
          "type": "address"
        },
        {
          "internalType": "uint256",
          "name": "index",
          "type": "uint256"
        }
      ],
      "name": "tokenOfOwnerByIndex",
      "outputs": [
        {
          "internalType": "uint256",
          "name": "",
          "type": "uint256"
        }
      ],
      "stateMutability": "view",
      "type": "function"
    },
    {
      "inputs": [],
      "name": "totalSupply",
      "outputs": [
        {
          "internalType": "uint256",
          "name": "",
          "type": "uint256"
        }
      ],
      "stateMutability": "view",
      "type": "function"
    },
    {
      "inputs": [
        {
          "internalType": "address",
          "name": "newOwner",
          "type": "address"
        }
      ],
      "name": "transferOwnership",
      "outputs": [],
      "stateMutability": "nonpayable",
      "type": "function"
    },
    {
      "inputs": [],
      "name": "txFeeAmount",
      "outputs": [
        {
          "internalType": "uint256",
          "name": "",
          "type": "uint256"
        }
      ],
      "stateMutability": "view",
      "type": "function"
    },
    {
      "inputs": [],
      "name": "txFeeToken",
      "outputs": [
        {
          "internalType": "address",
          "name": "",
          "type": "address"
        }
      ],
      "stateMutability": "view",
      "type": "function"
    },
    {
      "inputs": [],
      "name": "uri",
      "outputs": [
        {
          "internalType": "string",
          "name": "",
          "type": "string"
        }
      ],
      "stateMutability": "view",
      "type": "function"
    },
    {
      "inputs": [
        {
          "internalType": "address",
          "name": "",
          "type": "address"
        }
      ],
      "name": "whitelisted",
      "outputs": [
        {
          "internalType": "bool",
          "name": "",
          "type": "bool"
        }
      ],
      "stateMutability": "view",
      "type": "function"
    },
    {
      "inputs": [
        {
          "internalType": "uint256",
          "name": "amount",
          "type": "uint256"
        }
      ],
      "name": "getNFTPrice",
      "outputs": [
        {
          "internalType": "uint256",
          "name": "",
          "type": "uint256"
        }
      ],
      "stateMutability": "view",
      "type": "function"
    },
    {
      "inputs": [
        {
          "internalType": "address",
          "name": "excluded",
          "type": "address"
        },
        {
          "internalType": "bool",
          "name": "status",
          "type": "bool"
        }
      ],
      "name": "setExcluded",
      "outputs": [],
      "stateMutability": "nonpayable",
      "type": "function"
    },
    {
      "inputs": [
        {
          "internalType": "uint256",
          "name": "startDate",
          "type": "uint256"
        }
      ],
      "name": "setBlockStart",
      "outputs": [],
      "stateMutability": "nonpayable",
      "type": "function"
    },
    {
      "inputs": [
        {
          "internalType": "uint256",
          "name": "startDate",
          "type": "uint256"
        }
      ],
      "name": "updateBlockStart",
      "outputs": [],
      "stateMutability": "nonpayable",
      "type": "function"
    },
    {
      "inputs": [
        {
          "internalType": "address",
          "name": "from",
          "type": "address"
        },
        {
          "internalType": "address",
          "name": "to",
          "type": "address"
        },
        {
          "internalType": "uint256",
          "name": "tokenId",
          "type": "uint256"
        }
      ],
      "name": "transferFrom",
      "outputs": [],
      "stateMutability": "nonpayable",
      "type": "function"
    },
    {
      "inputs": [
        {
          "internalType": "address",
          "name": "from",
          "type": "address"
        },
        {
          "internalType": "address",
          "name": "to",
          "type": "address"
        },
        {
          "internalType": "uint256",
          "name": "tokenId",
          "type": "uint256"
        }
      ],
      "name": "safeTransferFrom",
      "outputs": [],
      "stateMutability": "nonpayable",
      "type": "function"
    },
    {
      "inputs": [
        {
          "internalType": "address",
          "name": "from",
          "type": "address"
        },
        {
          "internalType": "address",
          "name": "to",
          "type": "address"
        },
        {
          "internalType": "uint256",
          "name": "tokenId",
          "type": "uint256"
        },
        {
          "internalType": "bytes",
          "name": "_data",
          "type": "bytes"
        }
      ],
      "name": "safeTransferFrom",
      "outputs": [],
      "stateMutability": "nonpayable",
      "type": "function"
    },
    {
      "inputs": [
        {
          "internalType": "uint256",
          "name": "numberofBuffalos",
          "type": "uint256"
        }
      ],
      "name": "mintBuffalo",
      "outputs": [],
      "stateMutability": "payable",
      "type": "function"
    },
    {
      "inputs": [
        {
          "internalType": "bool",
          "name": "mintFlag",
          "type": "bool"
        }
      ],
      "name": "canMint",
      "outputs": [],
      "stateMutability": "nonpayable",
      "type": "function"
    },
    {
      "inputs": [
        {
          "internalType": "uint256",
          "name": "amount",
          "type": "uint256"
        }
      ],
      "name": "withdraw",
      "outputs": [],
      "stateMutability": "nonpayable",
      "type": "function"
    },
    {
      "inputs": [
        {
          "internalType": "string",
          "name": "URI",
          "type": "string"
        }
      ],
      "name": "changeBaseURI",
      "outputs": [],
      "stateMutability": "nonpayable",
      "type": "function"
    },
    {
      "inputs": [
        {
          "internalType": "uint256",
          "name": "supply",
          "type": "uint256"
        }
      ],
      "name": "changeMaxSupply",
      "outputs": [],
      "stateMutability": "nonpayable",
      "type": "function"
    },
    {
      "inputs": [
        {
          "internalType": "uint256",
          "name": "price",
          "type": "uint256"
        }
      ],
      "name": "updateMintPrice",
      "outputs": [],
      "stateMutability": "nonpayable",
      "type": "function"
    },
    {
      "inputs": [
        {
          "internalType": "address",
          "name": "_owner",
          "type": "address"
        }
      ],
      "name": "walletOfOwner",
      "outputs": [
        {
          "internalType": "uint256[]",
          "name": "",
          "type": "uint256[]"
        }
      ],
      "stateMutability": "view",
      "type": "function"
    },
    {
      "inputs": [
        {
          "internalType": "uint256",
          "name": "tokenId",
          "type": "uint256"
        }
      ],
      "name": "tokenURI",
      "outputs": [
        {
          "internalType": "string",
          "name": "",
          "type": "string"
        }
      ],
      "stateMutability": "view",
      "type": "function"
    },
    {
      "inputs": [
        {
          "internalType": "uint256",
          "name": "_newCost",
          "type": "uint256"
        }
      ],
      "name": "setCost",
      "outputs": [],
      "stateMutability": "nonpayable",
      "type": "function"
    },
    {
      "inputs": [
        {
          "internalType": "uint256",
          "name": "_newmaxMintAmount",
          "type": "uint256"
        }
      ],
      "name": "setmaxMintAmount",
      "outputs": [],
      "stateMutability": "nonpayable",
      "type": "function"
    },
    {
      "inputs": [
        {
          "internalType": "string",
          "name": "_newBaseURI",
          "type": "string"
        }
      ],
      "name": "setBaseURI",
      "outputs": [],
      "stateMutability": "nonpayable",
      "type": "function"
    },
    {
      "inputs": [
        {
          "internalType": "address",
          "name": "_user",
          "type": "address"
        }
      ],
      "name": "whitelistUser",
      "outputs": [],
      "stateMutability": "nonpayable",
      "type": "function"
    },
    {
      "inputs": [
        {
          "internalType": "address",
          "name": "_user",
          "type": "address"
        }
      ],
      "name": "removeWhitelistUser",
      "outputs": [],
      "stateMutability": "nonpayable",
      "type": "function"
    }
  ],
  "bytecode": "0x608060405267016345785d8a00006010556040518060400160405280600581526020017f2e6a736f6e000000000000000000000000000000000000000000000000000000815250601890805190602001906200005d92919062000e19565b506001601960006101000a81548160ff0219169083151502179055503480156200008657600080fd5b5060405162006c8138038062006c818339818101604052810190620000ac919062001106565b87878160009080519060200190620000c692919062000e19565b508060019080519060200190620000df92919062000e19565b50505062000102620000f66200028760201b60201c565b6200028f60201b60201c565b62000113866200035560201b60201c565b62000124846200040060201b60201c565b82601260006101000a81548173ffffffffffffffffffffffffffffffffffffffff021916908373ffffffffffffffffffffffffffffffffffffffff16021790555081601360006101000a81548173ffffffffffffffffffffffffffffffffffffffff021916908373ffffffffffffffffffffffffffffffffffffffff160217905550806011819055506001601b6000601260009054906101000a900473ffffffffffffffffffffffffffffffffffffffff1673ffffffffffffffffffffffffffffffffffffffff1673ffffffffffffffffffffffffffffffffffffffff16815260200190815260200160002060006101000a81548160ff02191690831515021790555084600c8190555060005b6001811015620002785760006200024d6200040a60201b60201c565b90506200026133826200041760201b60201c565b5080806200026f906200125b565b91505062000231565b505050505050505050620017fd565b600033905090565b6000600a60009054906101000a900473ffffffffffffffffffffffffffffffffffffffff16905081600a60006101000a81548173ffffffffffffffffffffffffffffffffffffffff021916908373ffffffffffffffffffffffffffffffffffffffff1602179055508173ffffffffffffffffffffffffffffffffffffffff168173ffffffffffffffffffffffffffffffffffffffff167f8be0079c531659141344cd1fd0a4f28419497f9722a3daafe3b4186f6b6457e060405160405180910390a35050565b620003656200028760201b60201c565b73ffffffffffffffffffffffffffffffffffffffff166200038b6200043d60201b60201c565b73ffffffffffffffffffffffffffffffffffffffff1614620003e4576040517f08c379a0000000000000000000000000000000000000000000000000000000008152600401620003db906200130a565b60405180910390fd5b8060149080519060200190620003fc92919062000e19565b5050565b80600b8190555050565b6000600880549050905090565b620004398282604051806020016040528060008152506200046760201b60201c565b5050565b6000600a60009054906101000a900473ffffffffffffffffffffffffffffffffffffffff16905090565b620004798383620004d560201b60201c565b6200048e6000848484620006bb60201b60201c565b620004d0576040517f08c379a0000000000000000000000000000000000000000000000000000000008152600401620004c790620013a2565b60405180910390fd5b505050565b600073ffffffffffffffffffffffffffffffffffffffff168273ffffffffffffffffffffffffffffffffffffffff16141562000548576040517f08c379a00000000000000000000000000000000000000000000000000000000081526004016200053f9062001414565b60405180910390fd5b62000559816200086560201b60201c565b156200059c576040517f08c379a0000000000000000000000000000000000000000000000000000000008152600401620005939062001486565b60405180910390fd5b620005b060008383620008d160201b60201c565b6001600360008473ffffffffffffffffffffffffffffffffffffffff1673ffffffffffffffffffffffffffffffffffffffff1681526020019081526020016000206000828254620006029190620014a8565b92505081905550816002600083815260200190815260200160002060006101000a81548173ffffffffffffffffffffffffffffffffffffffff021916908373ffffffffffffffffffffffffffffffffffffffff160217905550808273ffffffffffffffffffffffffffffffffffffffff16600073ffffffffffffffffffffffffffffffffffffffff167fddf252ad1be2c89b69c2b068fc378daa952ba7f163c4a11628f55a4df523b3ef60405160405180910390a45050565b6000620006e98473ffffffffffffffffffffffffffffffffffffffff1662000a1860201b620027b21760201c565b1562000858578373ffffffffffffffffffffffffffffffffffffffff1663150b7a026200071b6200028760201b60201c565b8786866040518563ffffffff1660e01b81526004016200073f949392919062001584565b6020604051808303816000875af19250505080156200077e57506040513d601f19601f820116820180604052508101906200077b919062001635565b60015b62000807573d8060008114620007b1576040519150601f19603f3d011682016040523d82523d6000602084013e620007b6565b606091505b50600081511415620007ff576040517f08c379a0000000000000000000000000000000000000000000000000000000008152600401620007f690620013a2565b60405180910390fd5b805181602001fd5b63150b7a0260e01b7bffffffffffffffffffffffffffffffffffffffffffffffffffffffff1916817bffffffffffffffffffffffffffffffffffffffffffffffffffffffff1916149150506200085d565b600190505b949350505050565b60008073ffffffffffffffffffffffffffffffffffffffff166002600084815260200190815260200160002060009054906101000a900473ffffffffffffffffffffffffffffffffffffffff1673ffffffffffffffffffffffffffffffffffffffff1614159050919050565b620008e983838362000a2b60201b620027c51760201c565b600073ffffffffffffffffffffffffffffffffffffffff168373ffffffffffffffffffffffffffffffffffffffff1614156200093657620009308162000a3060201b60201c565b6200097e565b8173ffffffffffffffffffffffffffffffffffffffff168373ffffffffffffffffffffffffffffffffffffffff16146200097d576200097c838262000a7960201b60201c565b5b5b600073ffffffffffffffffffffffffffffffffffffffff168273ffffffffffffffffffffffffffffffffffffffff161415620009cb57620009c58162000bf660201b60201c565b62000a13565b8273ffffffffffffffffffffffffffffffffffffffff168273ffffffffffffffffffffffffffffffffffffffff161462000a125762000a11828262000cd260201b60201c565b5b5b505050565b600080823b905060008111915050919050565b505050565b6008805490506009600083815260200190815260200160002081905550600881908060018154018082558091505060019003906000526020600020016000909190919091505550565b6000600162000a938462000d5e60201b62001c5f1760201c565b62000a9f919062001667565b905060006007600084815260200190815260200160002054905081811462000b85576000600660008673ffffffffffffffffffffffffffffffffffffffff1673ffffffffffffffffffffffffffffffffffffffff168152602001908152602001600020600084815260200190815260200160002054905080600660008773ffffffffffffffffffffffffffffffffffffffff1673ffffffffffffffffffffffffffffffffffffffff168152602001908152602001600020600084815260200190815260200160002081905550816007600083815260200190815260200160002081905550505b6007600084815260200190815260200160002060009055600660008573ffffffffffffffffffffffffffffffffffffffff1673ffffffffffffffffffffffffffffffffffffffff16815260200190815260200160002060008381526020019081526020016000206000905550505050565b6000600160088054905062000c0c919062001667565b905060006009600084815260200190815260200160002054905060006008838154811062000c3f5762000c3e620016a2565b5b90600052602060002001549050806008838154811062000c645762000c63620016a2565b5b90600052602060002001819055508160096000838152602001908152602001600020819055506009600085815260200190815260200160002060009055600880548062000cb65762000cb5620016d1565b5b6001900381819060005260206000200160009055905550505050565b600062000cea8362000d5e60201b62001c5f1760201c565b905081600660008573ffffffffffffffffffffffffffffffffffffffff1673ffffffffffffffffffffffffffffffffffffffff168152602001908152602001600020600083815260200190815260200160002081905550806007600084815260200190815260200160002081905550505050565b60008073ffffffffffffffffffffffffffffffffffffffff168273ffffffffffffffffffffffffffffffffffffffff16141562000dd2576040517f08c379a000000000000000000000000000000000000000000000000000000000815260040162000dc99062001776565b60405180910390fd5b600360008373ffffffffffffffffffffffffffffffffffffffff1673ffffffffffffffffffffffffffffffffffffffff168152602001908152602001600020549050919050565b82805462000e2790620017c7565b90600052602060002090601f01602090048101928262000e4b576000855562000e97565b82601f1062000e6657805160ff191683800117855562000e97565b8280016001018555821562000e97579182015b8281111562000e9657825182559160200191906001019062000e79565b5b50905062000ea6919062000eaa565b5090565b5b8082111562000ec557600081600090555060010162000eab565b5090565b6000604051905090565b600080fd5b600080fd5b600080fd5b600080fd5b6000601f19601f8301169050919050565b7f4e487b7100000000000000000000000000000000000000000000000000000000600052604160045260246000fd5b62000f328262000ee7565b810181811067ffffffffffffffff8211171562000f545762000f5362000ef8565b5b80604052505050565b600062000f6962000ec9565b905062000f77828262000f27565b919050565b600067ffffffffffffffff82111562000f9a5762000f9962000ef8565b5b62000fa58262000ee7565b9050602081019050919050565b60005b8381101562000fd257808201518184015260208101905062000fb5565b8381111562000fe2576000848401525b50505050565b600062000fff62000ff98462000f7c565b62000f5d565b9050828152602081018484840111156200101e576200101d62000ee2565b5b6200102b84828562000fb2565b509392505050565b600082601f8301126200104b576200104a62000edd565b5b81516200105d84826020860162000fe8565b91505092915050565b6000819050919050565b6200107b8162001066565b81146200108757600080fd5b50565b6000815190506200109b8162001070565b92915050565b600073ffffffffffffffffffffffffffffffffffffffff82169050919050565b6000620010ce82620010a1565b9050919050565b620010e081620010c1565b8114620010ec57600080fd5b50565b6000815190506200110081620010d5565b92915050565b600080600080600080600080610100898b0312156200112a576200112962000ed3565b5b600089015167ffffffffffffffff8111156200114b576200114a62000ed8565b5b620011598b828c0162001033565b985050602089015167ffffffffffffffff8111156200117d576200117c62000ed8565b5b6200118b8b828c0162001033565b975050604089015167ffffffffffffffff811115620011af57620011ae62000ed8565b5b620011bd8b828c0162001033565b9650506060620011d08b828c016200108a565b9550506080620011e38b828c016200108a565b94505060a0620011f68b828c01620010ef565b93505060c0620012098b828c01620010ef565b92505060e06200121c8b828c016200108a565b9150509295985092959890939650565b7f4e487b7100000000000000000000000000000000000000000000000000000000600052601160045260246000fd5b6000620012688262001066565b91507fffffffffffffffffffffffffffffffffffffffffffffffffffffffffffffffff8214156200129e576200129d6200122c565b5b600182019050919050565b600082825260208201905092915050565b7f4f776e61626c653a2063616c6c6572206973206e6f7420746865206f776e6572600082015250565b6000620012f2602083620012a9565b9150620012ff82620012ba565b602082019050919050565b600060208201905081810360008301526200132581620012e3565b9050919050565b7f4552433732313a207472616e7366657220746f206e6f6e20455243373231526560008201527f63656976657220696d706c656d656e7465720000000000000000000000000000602082015250565b60006200138a603283620012a9565b915062001397826200132c565b604082019050919050565b60006020820190508181036000830152620013bd816200137b565b9050919050565b7f4552433732313a206d696e7420746f20746865207a65726f2061646472657373600082015250565b6000620013fc602083620012a9565b91506200140982620013c4565b602082019050919050565b600060208201905081810360008301526200142f81620013ed565b9050919050565b7f4552433732313a20746f6b656e20616c7265616479206d696e74656400000000600082015250565b60006200146e601c83620012a9565b91506200147b8262001436565b602082019050919050565b60006020820190508181036000830152620014a1816200145f565b9050919050565b6000620014b58262001066565b9150620014c28362001066565b9250827fffffffffffffffffffffffffffffffffffffffffffffffffffffffffffffffff03821115620014fa57620014f96200122c565b5b828201905092915050565b6200151081620010c1565b82525050565b620015218162001066565b82525050565b600081519050919050565b600082825260208201905092915050565b6000620015508262001527565b6200155c818562001532565b93506200156e81856020860162000fb2565b620015798162000ee7565b840191505092915050565b60006080820190506200159b600083018762001505565b620015aa602083018662001505565b620015b9604083018562001516565b8181036060830152620015cd818462001543565b905095945050505050565b60007fffffffff0000000000000000000000000000000000000000000000000000000082169050919050565b6200160f81620015d8565b81146200161b57600080fd5b50565b6000815190506200162f8162001604565b92915050565b6000602082840312156200164e576200164d62000ed3565b5b60006200165e848285016200161e565b91505092915050565b6000620016748262001066565b9150620016818362001066565b9250828210156200169757620016966200122c565b5b828203905092915050565b7f4e487b7100000000000000000000000000000000000000000000000000000000600052603260045260246000fd5b7f4e487b7100000000000000000000000000000000000000000000000000000000600052603160045260246000fd5b7f4552433732313a2062616c616e636520717565727920666f7220746865207a6560008201527f726f206164647265737300000000000000000000000000000000000000000000602082015250565b60006200175e602a83620012a9565b91506200176b8262001700565b604082019050919050565b6000602082019050818103600083015262001791816200174f565b9050919050565b7f4e487b7100000000000000000000000000000000000000000000000000000000600052602260045260246000fd5b60006002820490506001821680620017e057607f821691505b60208210811415620017f757620017f662001798565b5b50919050565b615474806200180d6000396000f3fe6080604052600436106102fd5760003560e01c80634f6ccce7116101905780638fbceaad116100dc578063c87b56dd11610095578063e2db1a301161006f578063e2db1a3014610b93578063e985e9c514610bbc578063eac989f814610bf9578063f2fde38b14610c24576102fd565b8063c87b56dd14610aee578063d5abeb0114610b2b578063d936547e14610b56576102fd565b80638fbceaad146109ed5780639297617914610a1857806395d89b4114610a55578063a22cb46514610a80578063b2ca781414610aa9578063b88d4fde14610ac5576102fd565b80636c0360eb1161014957806377c567a71161012357806377c567a7146109435780637b2feaaa1461096e5780637f00c7a6146109995780638da5cb5b146109c2576102fd565b80636c0360eb146108c457806370a08231146108ef578063715018a61461092c576102fd565b80634f6ccce71461078e57806355f804b3146107cb5780635600d2fa146107f457806356ec7f11146108315780636352211e1461085c5780636b870e4414610899576102fd565b806330cc7ae01161024f578063438b63001161020857806346e8597a116101e257806346e8597a146106e85780634a4c560d146107115780634bf365df1461073a5780634e80f0f114610765576102fd565b8063438b63001461065757806343bc16121461069457806344a0d68a146106bf576102fd565b806330cc7ae01461055d57806332cb6b0c1461058657806339a0c6f9146105b1578063404c7cdd146105da57806341910f901461060357806342842e0e1461062e576102fd565b806313faede6116102bc57806323b872dd1161029657806323b872dd146104a55780632836be24146104ce5780632e1a7d4d146104f75780632f745c5914610520576102fd565b806313faede61461042457806318160ddd1461044f578063239c70ae1461047a576102fd565b8062728e46146103025780628bfb001461032b57806301ffc9a71461035657806306fdde0314610393578063081812fc146103be578063095ea7b3146103fb575b600080fd5b34801561030e57600080fd5b5061032960048036038101906103249190613a64565b610c4d565b005b34801561033757600080fd5b50610340610cd3565b60405161034d9190613b2a565b60405180910390f35b34801561036257600080fd5b5061037d60048036038101906103789190613ba4565b610d61565b60405161038a9190613bec565b60405180910390f35b34801561039f57600080fd5b506103a8610ddb565b6040516103b59190613b2a565b60405180910390f35b3480156103ca57600080fd5b506103e560048036038101906103e09190613a64565b610e6d565b6040516103f29190613c48565b60405180910390f35b34801561040757600080fd5b50610422600480360381019061041d9190613c8f565b610ef2565b005b34801561043057600080fd5b5061043961100a565b6040516104469190613cde565b60405180910390f35b34801561045b57600080fd5b50610464611010565b6040516104719190613cde565b60405180910390f35b34801561048657600080fd5b5061048f61101d565b60405161049c9190613cde565b60405180910390f35b3480156104b157600080fd5b506104cc60048036038101906104c79190613cf9565b611023565b005b3480156104da57600080fd5b506104f560048036038101906104f09190613d78565b6110e6565b005b34801561050357600080fd5b5061051e60048036038101906105199190613a64565b6111d1565b005b34801561052c57600080fd5b5061054760048036038101906105429190613c8f565b611297565b6040516105549190613cde565b60405180910390f35b34801561056957600080fd5b50610584600480360381019061057f9190613db8565b61133c565b005b34801561059257600080fd5b5061059b611413565b6040516105a89190613cde565b60405180910390f35b3480156105bd57600080fd5b506105d860048036038101906105d39190613f1a565b611419565b005b3480156105e657600080fd5b5061060160048036038101906105fc9190613a64565b6114a1565b005b34801561060f57600080fd5b50610618611527565b6040516106259190613cde565b60405180910390f35b34801561063a57600080fd5b5061065560048036038101906106509190613cf9565b61152d565b005b34801561066357600080fd5b5061067e60048036038101906106799190613db8565b6115b0565b60405161068b9190614021565b60405180910390f35b3480156106a057600080fd5b506106a961165e565b6040516106b69190613c48565b60405180910390f35b3480156106cb57600080fd5b506106e660048036038101906106e19190613a64565b611684565b005b3480156106f457600080fd5b5061070f600480360381019061070a9190613a64565b61170a565b005b34801561071d57600080fd5b5061073860048036038101906107339190613db8565b611759565b005b34801561074657600080fd5b5061074f611830565b60405161075c9190613bec565b60405180910390f35b34801561077157600080fd5b5061078c60048036038101906107879190614043565b611843565b005b34801561079a57600080fd5b506107b560048036038101906107b09190613a64565b6118dc565b6040516107c29190613cde565b60405180910390f35b3480156107d757600080fd5b506107f260048036038101906107ed9190613f1a565b61194d565b005b34801561080057600080fd5b5061081b60048036038101906108169190613db8565b6119e3565b6040516108289190613bec565b60405180910390f35b34801561083d57600080fd5b50610846611a03565b6040516108539190613b2a565b60405180910390f35b34801561086857600080fd5b50610883600480360381019061087e9190613a64565b611a91565b6040516108909190613c48565b60405180910390f35b3480156108a557600080fd5b506108ae611b43565b6040516108bb9190613b2a565b60405180910390f35b3480156108d057600080fd5b506108d9611bd1565b6040516108e69190613b2a565b60405180910390f35b3480156108fb57600080fd5b5061091660048036038101906109119190613db8565b611c5f565b6040516109239190613cde565b60405180910390f35b34801561093857600080fd5b50610941611d17565b005b34801561094f57600080fd5b50610958611d9f565b6040516109659190613c48565b60405180910390f35b34801561097a57600080fd5b50610983611dc5565b6040516109909190613cde565b60405180910390f35b3480156109a557600080fd5b506109c060048036038101906109bb9190613a64565b611dcb565b005b3480156109ce57600080fd5b506109d7611e51565b6040516109e49190613c48565b60405180910390f35b3480156109f957600080fd5b50610a02611e7b565b604051610a0f9190613cde565b60405180910390f35b348015610a2457600080fd5b50610a3f6004803603810190610a3a9190613a64565b611e81565b604051610a4c9190613cde565b60405180910390f35b348015610a6157600080fd5b50610a6a611e9f565b604051610a779190613b2a565b60405180910390f35b348015610a8c57600080fd5b50610aa76004803603810190610aa29190613d78565b611f31565b005b610ac36004803603810190610abe9190613a64565b6120b2565b005b348015610ad157600080fd5b50610aec6004803603810190610ae79190614111565b6123f9565b005b348015610afa57600080fd5b50610b156004803603810190610b109190613a64565b6124be565b604051610b229190613b2a565b60405180910390f35b348015610b3757600080fd5b50610b40612568565b604051610b4d9190613cde565b60405180910390f35b348015610b6257600080fd5b50610b7d6004803603810190610b789190613db8565b61256e565b604051610b8a9190613bec565b60405180910390f35b348015610b9f57600080fd5b50610bba6004803603810190610bb59190613a64565b61258e565b005b348015610bc857600080fd5b50610be36004803603810190610bde9190614194565b612598565b604051610bf09190613bec565b60405180910390f35b348015610c0557600080fd5b50610c0e61262c565b604051610c1b9190613b2a565b60405180910390f35b348015610c3057600080fd5b50610c4b6004803603810190610c469190613db8565b6126ba565b005b610c556127ca565b73ffffffffffffffffffffffffffffffffffffffff16610c73611e51565b73ffffffffffffffffffffffffffffffffffffffff1614610cc9576040517f08c379a0000000000000000000000000000000000000000000000000000000008152600401610cc090614220565b60405180910390fd5b8060108190555050565b60158054610ce09061426f565b80601f0160208091040260200160405190810160405280929190818152602001828054610d0c9061426f565b8015610d595780601f10610d2e57610100808354040283529160200191610d59565b820191906000526020600020905b815481529060010190602001808311610d3c57829003601f168201915b505050505081565b60007f780e9d63000000000000000000000000000000000000000000000000000000007bffffffffffffffffffffffffffffffffffffffffffffffffffffffff1916827bffffffffffffffffffffffffffffffffffffffffffffffffffffffff19161480610dd45750610dd3826127d2565b5b9050919050565b606060008054610dea9061426f565b80601f0160208091040260200160405190810160405280929190818152602001828054610e169061426f565b8015610e635780601f10610e3857610100808354040283529160200191610e63565b820191906000526020600020905b815481529060010190602001808311610e4657829003601f168201915b5050505050905090565b6000610e78826128b4565b610eb7576040517f08c379a0000000000000000000000000000000000000000000000000000000008152600401610eae90614313565b60405180910390fd5b6004600083815260200190815260200160002060009054906101000a900473ffffffffffffffffffffffffffffffffffffffff169050919050565b6000610efd82611a91565b90508073ffffffffffffffffffffffffffffffffffffffff168373ffffffffffffffffffffffffffffffffffffffff161415610f6e576040517f08c379a0000000000000000000000000000000000000000000000000000000008152600401610f65906143a5565b60405180910390fd5b8073ffffffffffffffffffffffffffffffffffffffff16610f8d6127ca565b73ffffffffffffffffffffffffffffffffffffffff161480610fbc5750610fbb81610fb66127ca565b612598565b5b610ffb576040517f08c379a0000000000000000000000000000000000000000000000000000000008152600401610ff290614437565b60405180910390fd5b6110058383612920565b505050565b600d5481565b6000600880549050905090565b600f5481565b61103461102e6127ca565b826129d9565b611073576040517f08c379a000000000000000000000000000000000000000000000000000000000815260040161106a906144c9565b60405180910390fd5b60001515601b60008573ffffffffffffffffffffffffffffffffffffffff1673ffffffffffffffffffffffffffffffffffffffff16815260200190815260200160002060009054906101000a900460ff16151514156110d6576110d583612ab7565b5b6110e1838383612b87565b505050565b601260009054906101000a900473ffffffffffffffffffffffffffffffffffffffff1673ffffffffffffffffffffffffffffffffffffffff163373ffffffffffffffffffffffffffffffffffffffff1614611176576040517f08c379a000000000000000000000000000000000000000000000000000000000815260040161116d90614535565b60405180910390fd5b80601b60008473ffffffffffffffffffffffffffffffffffffffff1673ffffffffffffffffffffffffffffffffffffffff16815260200190815260200160002060006101000a81548160ff0219169083151502179055505050565b6111d96127ca565b73ffffffffffffffffffffffffffffffffffffffff166111f7611e51565b73ffffffffffffffffffffffffffffffffffffffff161461124d576040517f08c379a000000000000000000000000000000000000000000000000000000000815260040161124490614220565b60405180910390fd5b3373ffffffffffffffffffffffffffffffffffffffff166108fc829081150290604051600060405180830381858888f19350505050158015611293573d6000803e3d6000fd5b5050565b60006112a283611c5f565b82106112e3576040517f08c379a00000000000000000000000000000000000000000000000000000000081526004016112da906145c7565b60405180910390fd5b600660008473ffffffffffffffffffffffffffffffffffffffff1673ffffffffffffffffffffffffffffffffffffffff168152602001908152602001600020600083815260200190815260200160002054905092915050565b6113446127ca565b73ffffffffffffffffffffffffffffffffffffffff16611362611e51565b73ffffffffffffffffffffffffffffffffffffffff16146113b8576040517f08c379a00000000000000000000000000000000000000000000000000000000081526004016113af90614220565b60405180910390fd5b6000601a60008373ffffffffffffffffffffffffffffffffffffffff1673ffffffffffffffffffffffffffffffffffffffff16815260200190815260200160002060006101000a81548160ff02191690831515021790555050565b600c5481565b6114216127ca565b73ffffffffffffffffffffffffffffffffffffffff1661143f611e51565b73ffffffffffffffffffffffffffffffffffffffff1614611495576040517f08c379a000000000000000000000000000000000000000000000000000000000815260040161148c90614220565b60405180910390fd5b61149e8161194d565b50565b6114a96127ca565b73ffffffffffffffffffffffffffffffffffffffff166114c7611e51565b73ffffffffffffffffffffffffffffffffffffffff161461151d576040517f08c379a000000000000000000000000000000000000000000000000000000000815260040161151490614220565b60405180910390fd5b80600c8190555050565b60105481565b60001515601b60008573ffffffffffffffffffffffffffffffffffffffff1673ffffffffffffffffffffffffffffffffffffffff16815260200190815260200160002060009054906101000a900460ff16151514156115905761158f83612ab7565b5b6115ab838383604051806020016040528060008152506123f9565b505050565b606060006115bd83611c5f565b905060008167ffffffffffffffff8111156115db576115da613def565b5b6040519080825280602002602001820160405280156116095781602001602082028036833780820191505090505b50905060005b82811015611653576116218582611297565b828281518110611634576116336145e7565b5b602002602001018181525050808061164b90614645565b91505061160f565b508092505050919050565b601260009054906101000a900473ffffffffffffffffffffffffffffffffffffffff1681565b61168c6127ca565b73ffffffffffffffffffffffffffffffffffffffff166116aa611e51565b73ffffffffffffffffffffffffffffffffffffffff1614611700576040517f08c379a00000000000000000000000000000000000000000000000000000000081526004016116f790614220565b60405180910390fd5b80600d8190555050565b600b5442111561174f576040517f08c379a0000000000000000000000000000000000000000000000000000000008152600401611746906146da565b60405180910390fd5b80600b8190555050565b6117616127ca565b73ffffffffffffffffffffffffffffffffffffffff1661177f611e51565b73ffffffffffffffffffffffffffffffffffffffff16146117d5576040517f08c379a00000000000000000000000000000000000000000000000000000000081526004016117cc90614220565b60405180910390fd5b6001601a60008373ffffffffffffffffffffffffffffffffffffffff1673ffffffffffffffffffffffffffffffffffffffff16815260200190815260200160002060006101000a81548160ff02191690831515021790555050565b601960009054906101000a900460ff1681565b61184b6127ca565b73ffffffffffffffffffffffffffffffffffffffff16611869611e51565b73ffffffffffffffffffffffffffffffffffffffff16146118bf576040517f08c379a00000000000000000000000000000000000000000000000000000000081526004016118b690614220565b60405180910390fd5b80601960006101000a81548160ff02191690831515021790555050565b60006118e6611010565b8210611927576040517f08c379a000000000000000000000000000000000000000000000000000000000815260040161191e9061476c565b60405180910390fd5b6008828154811061193b5761193a6145e7565b5b90600052602060002001549050919050565b6119556127ca565b73ffffffffffffffffffffffffffffffffffffffff16611973611e51565b73ffffffffffffffffffffffffffffffffffffffff16146119c9576040517f08c379a00000000000000000000000000000000000000000000000000000000081526004016119c090614220565b60405180910390fd5b80601490805190602001906119df929190613977565b5050565b601b6020528060005260406000206000915054906101000a900460ff1681565b60168054611a109061426f565b80601f0160208091040260200160405190810160405280929190818152602001828054611a3c9061426f565b8015611a895780601f10611a5e57610100808354040283529160200191611a89565b820191906000526020600020905b815481529060010190602001808311611a6c57829003601f168201915b505050505081565b6000806002600084815260200190815260200160002060009054906101000a900473ffffffffffffffffffffffffffffffffffffffff169050600073ffffffffffffffffffffffffffffffffffffffff168173ffffffffffffffffffffffffffffffffffffffff161415611b3a576040517f08c379a0000000000000000000000000000000000000000000000000000000008152600401611b31906147fe565b60405180910390fd5b80915050919050565b60188054611b509061426f565b80601f0160208091040260200160405190810160405280929190818152602001828054611b7c9061426f565b8015611bc95780601f10611b9e57610100808354040283529160200191611bc9565b820191906000526020600020905b815481529060010190602001808311611bac57829003601f168201915b505050505081565b60148054611bde9061426f565b80601f0160208091040260200160405190810160405280929190818152602001828054611c0a9061426f565b8015611c575780601f10611c2c57610100808354040283529160200191611c57565b820191906000526020600020905b815481529060010190602001808311611c3a57829003601f168201915b505050505081565b60008073ffffffffffffffffffffffffffffffffffffffff168273ffffffffffffffffffffffffffffffffffffffff161415611cd0576040517f08c379a0000000000000000000000000000000000000000000000000000000008152600401611cc790614890565b60405180910390fd5b600360008373ffffffffffffffffffffffffffffffffffffffff1673ffffffffffffffffffffffffffffffffffffffff168152602001908152602001600020549050919050565b611d1f6127ca565b73ffffffffffffffffffffffffffffffffffffffff16611d3d611e51565b73ffffffffffffffffffffffffffffffffffffffff1614611d93576040517f08c379a0000000000000000000000000000000000000000000000000000000008152600401611d8a90614220565b60405180910390fd5b611d9d6000612de3565b565b601360009054906101000a900473ffffffffffffffffffffffffffffffffffffffff1681565b600b5481565b611dd36127ca565b73ffffffffffffffffffffffffffffffffffffffff16611df1611e51565b73ffffffffffffffffffffffffffffffffffffffff1614611e47576040517f08c379a0000000000000000000000000000000000000000000000000000000008152600401611e3e90614220565b60405180910390fd5b80600f8190555050565b6000600a60009054906101000a900473ffffffffffffffffffffffffffffffffffffffff16905090565b60115481565b6000611e9860105483612ea990919063ffffffff16565b9050919050565b606060018054611eae9061426f565b80601f0160208091040260200160405190810160405280929190818152602001828054611eda9061426f565b8015611f275780601f10611efc57610100808354040283529160200191611f27565b820191906000526020600020905b815481529060010190602001808311611f0a57829003601f168201915b5050505050905090565b611f396127ca565b73ffffffffffffffffffffffffffffffffffffffff168273ffffffffffffffffffffffffffffffffffffffff161415611fa7576040517f08c379a0000000000000000000000000000000000000000000000000000000008152600401611f9e906148fc565b60405180910390fd5b8060056000611fb46127ca565b73ffffffffffffffffffffffffffffffffffffffff1673ffffffffffffffffffffffffffffffffffffffff16815260200190815260200160002060008473ffffffffffffffffffffffffffffffffffffffff1673ffffffffffffffffffffffffffffffffffffffff16815260200190815260200160002060006101000a81548160ff0219169083151502179055508173ffffffffffffffffffffffffffffffffffffffff166120616127ca565b73ffffffffffffffffffffffffffffffffffffffff167f17307eab39ab6107e8899845ad3d59bd9653f200f220920489ca2b5937696c31836040516120a69190613bec565b60405180910390a35050565b600b544210156120f7576040517f08c379a00000000000000000000000000000000000000000000000000000000081526004016120ee9061498e565b60405180910390fd5b600c54612102611010565b10612142576040517f08c379a0000000000000000000000000000000000000000000000000000000008152600401612139906149fa565b60405180910390fd5b60008111612185576040517f08c379a000000000000000000000000000000000000000000000000000000000815260040161217c90614a66565b60405180910390fd5b600c54612199612193611010565b83612ebf565b11156121da576040517f08c379a00000000000000000000000000000000000000000000000000000000081526004016121d190614b1e565b60405180910390fd5b6121e333611c5f565b6121ec82611e81565b111561222d576040517f08c379a000000000000000000000000000000000000000000000000000000000815260040161222490614bb0565b60405180910390fd5b60005b81811015612262576000612242611010565b905061224e3382612ed5565b50808061225a90614645565b915050612230565b506000601360009054906101000a900473ffffffffffffffffffffffffffffffffffffffff1690508073ffffffffffffffffffffffffffffffffffffffff1663095ea7b3336122b085611e81565b6040518363ffffffff1660e01b81526004016122cd929190614bd0565b6020604051808303816000875af11580156122ec573d6000803e3d6000fd5b505050506040513d601f19601f820116820180604052508101906123109190614c0e565b508073ffffffffffffffffffffffffffffffffffffffff166323b872dd33601260009054906101000a900473ffffffffffffffffffffffffffffffffffffffff1661235a86611e81565b6040518463ffffffff1660e01b815260040161237893929190614c3b565b6020604051808303816000875af1158015612397573d6000803e3d6000fd5b505050506040513d601f19601f820116820180604052508101906123bb9190614c0e565b507f152a3f66f8394a939d9860354eb635f358dd886f139a26e3accff04f6d6a132333836040516123ed929190614bd0565b60405180910390a15050565b61240a6124046127ca565b836129d9565b612449576040517f08c379a0000000000000000000000000000000000000000000000000000000008152600401612440906144c9565b60405180910390fd5b60001515601b60008673ffffffffffffffffffffffffffffffffffffffff1673ffffffffffffffffffffffffffffffffffffffff16815260200190815260200160002060009054906101000a900460ff16151514156124ac576124ab84612ab7565b5b6124b884848484612ef3565b50505050565b60606124c9826128b4565b612508576040517f08c379a00000000000000000000000000000000000000000000000000000000081526004016124ff90614ce4565b60405180910390fd5b6000612512612f4f565b905060008151116125325760405180602001604052806000815250612560565b8061253c84612fe1565b601860405160200161255093929190614dd4565b6040516020818303038152906040525b915050919050565b600e5481565b601a6020528060005260406000206000915054906101000a900460ff1681565b80600b8190555050565b6000600560008473ffffffffffffffffffffffffffffffffffffffff1673ffffffffffffffffffffffffffffffffffffffff16815260200190815260200160002060008373ffffffffffffffffffffffffffffffffffffffff1673ffffffffffffffffffffffffffffffffffffffff16815260200190815260200160002060009054906101000a900460ff16905092915050565b601780546126399061426f565b80601f01602080910402602001604051908101604052809291908181526020018280546126659061426f565b80156126b25780601f10612687576101008083540402835291602001916126b2565b820191906000526020600020905b81548152906001019060200180831161269557829003601f168201915b505050505081565b6126c26127ca565b73ffffffffffffffffffffffffffffffffffffffff166126e0611e51565b73ffffffffffffffffffffffffffffffffffffffff1614612736576040517f08c379a000000000000000000000000000000000000000000000000000000000815260040161272d90614220565b60405180910390fd5b600073ffffffffffffffffffffffffffffffffffffffff168173ffffffffffffffffffffffffffffffffffffffff1614156127a6576040517f08c379a000000000000000000000000000000000000000000000000000000000815260040161279d90614e77565b60405180910390fd5b6127af81612de3565b50565b600080823b905060008111915050919050565b505050565b600033905090565b60007f80ac58cd000000000000000000000000000000000000000000000000000000007bffffffffffffffffffffffffffffffffffffffffffffffffffffffff1916827bffffffffffffffffffffffffffffffffffffffffffffffffffffffff1916148061289d57507f5b5e139f000000000000000000000000000000000000000000000000000000007bffffffffffffffffffffffffffffffffffffffffffffffffffffffff1916827bffffffffffffffffffffffffffffffffffffffffffffffffffffffff1916145b806128ad57506128ac82613142565b5b9050919050565b60008073ffffffffffffffffffffffffffffffffffffffff166002600084815260200190815260200160002060009054906101000a900473ffffffffffffffffffffffffffffffffffffffff1673ffffffffffffffffffffffffffffffffffffffff1614159050919050565b816004600083815260200190815260200160002060006101000a81548173ffffffffffffffffffffffffffffffffffffffff021916908373ffffffffffffffffffffffffffffffffffffffff160217905550808273ffffffffffffffffffffffffffffffffffffffff1661299383611a91565b73ffffffffffffffffffffffffffffffffffffffff167f8c5be1e5ebec7d5bd14f71427d1e84f3dd0314c0f7b2291e5b200ac8c7c3b92560405160405180910390a45050565b60006129e4826128b4565b612a23576040517f08c379a0000000000000000000000000000000000000000000000000000000008152600401612a1a90614f09565b60405180910390fd5b6000612a2e83611a91565b90508073ffffffffffffffffffffffffffffffffffffffff168473ffffffffffffffffffffffffffffffffffffffff161480612a9d57508373ffffffffffffffffffffffffffffffffffffffff16612a8584610e6d565b73ffffffffffffffffffffffffffffffffffffffff16145b80612aae5750612aad8185612598565b5b91505092915050565b6000601360009054906101000a900473ffffffffffffffffffffffffffffffffffffffff1690508073ffffffffffffffffffffffffffffffffffffffff166323b872dd83601260009054906101000a900473ffffffffffffffffffffffffffffffffffffffff166011546040518463ffffffff1660e01b8152600401612b3f93929190614c3b565b6020604051808303816000875af1158015612b5e573d6000803e3d6000fd5b505050506040513d601f19601f82011682018060405250810190612b829190614c0e565b505050565b8273ffffffffffffffffffffffffffffffffffffffff16612ba782611a91565b73ffffffffffffffffffffffffffffffffffffffff1614612bfd576040517f08c379a0000000000000000000000000000000000000000000000000000000008152600401612bf490614f9b565b60405180910390fd5b600073ffffffffffffffffffffffffffffffffffffffff168273ffffffffffffffffffffffffffffffffffffffff161415612c6d576040517f08c379a0000000000000000000000000000000000000000000000000000000008152600401612c649061502d565b60405180910390fd5b612c788383836131ac565b612c83600082612920565b6001600360008573ffffffffffffffffffffffffffffffffffffffff1673ffffffffffffffffffffffffffffffffffffffff1681526020019081526020016000206000828254612cd3919061504d565b925050819055506001600360008473ffffffffffffffffffffffffffffffffffffffff1673ffffffffffffffffffffffffffffffffffffffff1681526020019081526020016000206000828254612d2a9190615081565b92505081905550816002600083815260200190815260200160002060006101000a81548173ffffffffffffffffffffffffffffffffffffffff021916908373ffffffffffffffffffffffffffffffffffffffff160217905550808273ffffffffffffffffffffffffffffffffffffffff168473ffffffffffffffffffffffffffffffffffffffff167fddf252ad1be2c89b69c2b068fc378daa952ba7f163c4a11628f55a4df523b3ef60405160405180910390a4505050565b6000600a60009054906101000a900473ffffffffffffffffffffffffffffffffffffffff16905081600a60006101000a81548173ffffffffffffffffffffffffffffffffffffffff021916908373ffffffffffffffffffffffffffffffffffffffff1602179055508173ffffffffffffffffffffffffffffffffffffffff168173ffffffffffffffffffffffffffffffffffffffff167f8be0079c531659141344cd1fd0a4f28419497f9722a3daafe3b4186f6b6457e060405160405180910390a35050565b60008183612eb791906150d7565b905092915050565b60008183612ecd9190615081565b905092915050565b612eef8282604051806020016040528060008152506132c0565b5050565b612efe848484612b87565b612f0a8484848461331b565b612f49576040517f08c379a0000000000000000000000000000000000000000000000000000000008152600401612f40906151a3565b60405180910390fd5b50505050565b606060148054612f5e9061426f565b80601f0160208091040260200160405190810160405280929190818152602001828054612f8a9061426f565b8015612fd75780601f10612fac57610100808354040283529160200191612fd7565b820191906000526020600020905b815481529060010190602001808311612fba57829003601f168201915b5050505050905090565b60606000821415613029576040518060400160405280600181526020017f3000000000000000000000000000000000000000000000000000000000000000815250905061313d565b600082905060005b6000821461305b57808061304490614645565b915050600a8261305491906151f2565b9150613031565b60008167ffffffffffffffff81111561307757613076613def565b5b6040519080825280601f01601f1916602001820160405280156130a95781602001600182028036833780820191505090505b5090505b60008514613136576001826130c2919061504d565b9150600a856130d19190615223565b60306130dd9190615081565b60f81b8183815181106130f3576130f26145e7565b5b60200101907effffffffffffffffffffffffffffffffffffffffffffffffffffffffffffff1916908160001a905350600a8561312f91906151f2565b94506130ad565b8093505050505b919050565b60007f01ffc9a7000000000000000000000000000000000000000000000000000000007bffffffffffffffffffffffffffffffffffffffffffffffffffffffff1916827bffffffffffffffffffffffffffffffffffffffffffffffffffffffff1916149050919050565b6131b78383836127c5565b600073ffffffffffffffffffffffffffffffffffffffff168373ffffffffffffffffffffffffffffffffffffffff1614156131fa576131f5816134a3565b613239565b8173ffffffffffffffffffffffffffffffffffffffff168373ffffffffffffffffffffffffffffffffffffffff16146132385761323783826134ec565b5b5b600073ffffffffffffffffffffffffffffffffffffffff168273ffffffffffffffffffffffffffffffffffffffff16141561327c5761327781613659565b6132bb565b8273ffffffffffffffffffffffffffffffffffffffff168273ffffffffffffffffffffffffffffffffffffffff16146132ba576132b9828261372a565b5b5b505050565b6132ca83836137a9565b6132d7600084848461331b565b613316576040517f08c379a000000000000000000000000000000000000000000000000000000000815260040161330d906151a3565b60405180910390fd5b505050565b600061333c8473ffffffffffffffffffffffffffffffffffffffff166127b2565b15613496578373ffffffffffffffffffffffffffffffffffffffff1663150b7a026133656127ca565b8786866040518563ffffffff1660e01b815260040161338794939291906152a9565b6020604051808303816000875af19250505080156133c357506040513d601f19601f820116820180604052508101906133c0919061530a565b60015b613446573d80600081146133f3576040519150601f19603f3d011682016040523d82523d6000602084013e6133f8565b606091505b5060008151141561343e576040517f08c379a0000000000000000000000000000000000000000000000000000000008152600401613435906151a3565b60405180910390fd5b805181602001fd5b63150b7a0260e01b7bffffffffffffffffffffffffffffffffffffffffffffffffffffffff1916817bffffffffffffffffffffffffffffffffffffffffffffffffffffffff19161491505061349b565b600190505b949350505050565b6008805490506009600083815260200190815260200160002081905550600881908060018154018082558091505060019003906000526020600020016000909190919091505550565b600060016134f984611c5f565b613503919061504d565b90506000600760008481526020019081526020016000205490508181146135e8576000600660008673ffffffffffffffffffffffffffffffffffffffff1673ffffffffffffffffffffffffffffffffffffffff168152602001908152602001600020600084815260200190815260200160002054905080600660008773ffffffffffffffffffffffffffffffffffffffff1673ffffffffffffffffffffffffffffffffffffffff168152602001908152602001600020600084815260200190815260200160002081905550816007600083815260200190815260200160002081905550505b6007600084815260200190815260200160002060009055600660008573ffffffffffffffffffffffffffffffffffffffff1673ffffffffffffffffffffffffffffffffffffffff16815260200190815260200160002060008381526020019081526020016000206000905550505050565b6000600160088054905061366d919061504d565b905060006009600084815260200190815260200160002054905060006008838154811061369d5761369c6145e7565b5b9060005260206000200154905080600883815481106136bf576136be6145e7565b5b90600052602060002001819055508160096000838152602001908152602001600020819055506009600085815260200190815260200160002060009055600880548061370e5761370d615337565b5b6001900381819060005260206000200160009055905550505050565b600061373583611c5f565b905081600660008573ffffffffffffffffffffffffffffffffffffffff1673ffffffffffffffffffffffffffffffffffffffff168152602001908152602001600020600083815260200190815260200160002081905550806007600084815260200190815260200160002081905550505050565b600073ffffffffffffffffffffffffffffffffffffffff168273ffffffffffffffffffffffffffffffffffffffff161415613819576040517f08c379a0000000000000000000000000000000000000000000000000000000008152600401613810906153b2565b60405180910390fd5b613822816128b4565b15613862576040517f08c379a00000000000000000000000000000000000000000000000000000000081526004016138599061541e565b60405180910390fd5b61386e600083836131ac565b6001600360008473ffffffffffffffffffffffffffffffffffffffff1673ffffffffffffffffffffffffffffffffffffffff16815260200190815260200160002060008282546138be9190615081565b92505081905550816002600083815260200190815260200160002060006101000a81548173ffffffffffffffffffffffffffffffffffffffff021916908373ffffffffffffffffffffffffffffffffffffffff160217905550808273ffffffffffffffffffffffffffffffffffffffff16600073ffffffffffffffffffffffffffffffffffffffff167fddf252ad1be2c89b69c2b068fc378daa952ba7f163c4a11628f55a4df523b3ef60405160405180910390a45050565b8280546139839061426f565b90600052602060002090601f0160209004810192826139a557600085556139ec565b82601f106139be57805160ff19168380011785556139ec565b828001600101855582156139ec579182015b828111156139eb5782518255916020019190600101906139d0565b5b5090506139f991906139fd565b5090565b5b80821115613a165760008160009055506001016139fe565b5090565b6000604051905090565b600080fd5b600080fd5b6000819050919050565b613a4181613a2e565b8114613a4c57600080fd5b50565b600081359050613a5e81613a38565b92915050565b600060208284031215613a7a57613a79613a24565b5b6000613a8884828501613a4f565b91505092915050565b600081519050919050565b600082825260208201905092915050565b60005b83811015613acb578082015181840152602081019050613ab0565b83811115613ada576000848401525b50505050565b6000601f19601f8301169050919050565b6000613afc82613a91565b613b068185613a9c565b9350613b16818560208601613aad565b613b1f81613ae0565b840191505092915050565b60006020820190508181036000830152613b448184613af1565b905092915050565b60007fffffffff0000000000000000000000000000000000000000000000000000000082169050919050565b613b8181613b4c565b8114613b8c57600080fd5b50565b600081359050613b9e81613b78565b92915050565b600060208284031215613bba57613bb9613a24565b5b6000613bc884828501613b8f565b91505092915050565b60008115159050919050565b613be681613bd1565b82525050565b6000602082019050613c016000830184613bdd565b92915050565b600073ffffffffffffffffffffffffffffffffffffffff82169050919050565b6000613c3282613c07565b9050919050565b613c4281613c27565b82525050565b6000602082019050613c5d6000830184613c39565b92915050565b613c6c81613c27565b8114613c7757600080fd5b50565b600081359050613c8981613c63565b92915050565b60008060408385031215613ca657613ca5613a24565b5b6000613cb485828601613c7a565b9250506020613cc585828601613a4f565b9150509250929050565b613cd881613a2e565b82525050565b6000602082019050613cf36000830184613ccf565b92915050565b600080600060608486031215613d1257613d11613a24565b5b6000613d2086828701613c7a565b9350506020613d3186828701613c7a565b9250506040613d4286828701613a4f565b9150509250925092565b613d5581613bd1565b8114613d6057600080fd5b50565b600081359050613d7281613d4c565b92915050565b60008060408385031215613d8f57613d8e613a24565b5b6000613d9d85828601613c7a565b9250506020613dae85828601613d63565b9150509250929050565b600060208284031215613dce57613dcd613a24565b5b6000613ddc84828501613c7a565b91505092915050565b600080fd5b600080fd5b7f4e487b7100000000000000000000000000000000000000000000000000000000600052604160045260246000fd5b613e2782613ae0565b810181811067ffffffffffffffff82111715613e4657613e45613def565b5b80604052505050565b6000613e59613a1a565b9050613e658282613e1e565b919050565b600067ffffffffffffffff821115613e8557613e84613def565b5b613e8e82613ae0565b9050602081019050919050565b82818337600083830152505050565b6000613ebd613eb884613e6a565b613e4f565b905082815260208101848484011115613ed957613ed8613dea565b5b613ee4848285613e9b565b509392505050565b600082601f830112613f0157613f00613de5565b5b8135613f11848260208601613eaa565b91505092915050565b600060208284031215613f3057613f2f613a24565b5b600082013567ffffffffffffffff811115613f4e57613f4d613a29565b5b613f5a84828501613eec565b91505092915050565b600081519050919050565b600082825260208201905092915050565b6000819050602082019050919050565b613f9881613a2e565b82525050565b6000613faa8383613f8f565b60208301905092915050565b6000602082019050919050565b6000613fce82613f63565b613fd88185613f6e565b9350613fe383613f7f565b8060005b83811015614014578151613ffb8882613f9e565b975061400683613fb6565b925050600181019050613fe7565b5085935050505092915050565b6000602082019050818103600083015261403b8184613fc3565b905092915050565b60006020828403121561405957614058613a24565b5b600061406784828501613d63565b91505092915050565b600067ffffffffffffffff82111561408b5761408a613def565b5b61409482613ae0565b9050602081019050919050565b60006140b46140af84614070565b613e4f565b9050828152602081018484840111156140d0576140cf613dea565b5b6140db848285613e9b565b509392505050565b600082601f8301126140f8576140f7613de5565b5b81356141088482602086016140a1565b91505092915050565b6000806000806080858703121561412b5761412a613a24565b5b600061413987828801613c7a565b945050602061414a87828801613c7a565b935050604061415b87828801613a4f565b925050606085013567ffffffffffffffff81111561417c5761417b613a29565b5b614188878288016140e3565b91505092959194509250565b600080604083850312156141ab576141aa613a24565b5b60006141b985828601613c7a565b92505060206141ca85828601613c7a565b9150509250929050565b7f4f776e61626c653a2063616c6c6572206973206e6f7420746865206f776e6572600082015250565b600061420a602083613a9c565b9150614215826141d4565b602082019050919050565b60006020820190508181036000830152614239816141fd565b9050919050565b7f4e487b7100000000000000000000000000000000000000000000000000000000600052602260045260246000fd5b6000600282049050600182168061428757607f821691505b6020821081141561429b5761429a614240565b5b50919050565b7f4552433732313a20617070726f76656420717565727920666f72206e6f6e657860008201527f697374656e7420746f6b656e0000000000000000000000000000000000000000602082015250565b60006142fd602c83613a9c565b9150614308826142a1565b604082019050919050565b6000602082019050818103600083015261432c816142f0565b9050919050565b7f4552433732313a20617070726f76616c20746f2063757272656e74206f776e6560008201527f7200000000000000000000000000000000000000000000000000000000000000602082015250565b600061438f602183613a9c565b915061439a82614333565b604082019050919050565b600060208201905081810360008301526143be81614382565b9050919050565b7f4552433732313a20617070726f76652063616c6c6572206973206e6f74206f7760008201527f6e6572206e6f7220617070726f76656420666f7220616c6c0000000000000000602082015250565b6000614421603883613a9c565b915061442c826143c5565b604082019050919050565b6000602082019050818103600083015261445081614414565b9050919050565b7f4552433732313a207472616e736665722063616c6c65722069736e277420617560008201527f74686f72697a6564000000000000000000000000000000000000000000000000602082015250565b60006144b3602883613a9c565b91506144be82614457565b604082019050919050565b600060208201905081810360008301526144e2816144a6565b9050919050565b7f617274697374206f6e6c79000000000000000000000000000000000000000000600082015250565b600061451f600b83613a9c565b915061452a826144e9565b602082019050919050565b6000602082019050818103600083015261454e81614512565b9050919050565b7f455243373231456e756d657261626c653a206f776e657220696e646578206f7560008201527f74206f6620626f756e6473000000000000000000000000000000000000000000602082015250565b60006145b1602b83613a9c565b91506145bc82614555565b604082019050919050565b600060208201905081810360008301526145e0816145a4565b9050919050565b7f4e487b7100000000000000000000000000000000000000000000000000000000600052603260045260246000fd5b7f4e487b7100000000000000000000000000000000000000000000000000000000600052601160045260246000fd5b600061465082613a2e565b91507fffffffffffffffffffffffffffffffffffffffffffffffffffffffffffffffff82141561468357614682614616565b5b600182019050919050565b7f53616c652068617320616c726561647920737461727465642e00000000000000600082015250565b60006146c4601983613a9c565b91506146cf8261468e565b602082019050919050565b600060208201905081810360008301526146f3816146b7565b9050919050565b7f455243373231456e756d657261626c653a20676c6f62616c20696e646578206f60008201527f7574206f6620626f756e64730000000000000000000000000000000000000000602082015250565b6000614756602c83613a9c565b9150614761826146fa565b604082019050919050565b6000602082019050818103600083015261478581614749565b9050919050565b7f4552433732313a206f776e657220717565727920666f72206e6f6e657869737460008201527f656e7420746f6b656e0000000000000000000000000000000000000000000000602082015250565b60006147e8602983613a9c565b91506147f38261478c565b604082019050919050565b60006020820190508181036000830152614817816147db565b9050919050565b7f4552433732313a2062616c616e636520717565727920666f7220746865207a6560008201527f726f206164647265737300000000000000000000000000000000000000000000602082015250565b600061487a602a83613a9c565b91506148858261481e565b604082019050919050565b600060208201905081810360008301526148a98161486d565b9050919050565b7f4552433732313a20617070726f766520746f2063616c6c657200000000000000600082015250565b60006148e6601983613a9c565b91506148f1826148b0565b602082019050919050565b60006020820190508181036000830152614915816148d9565b9050919050565b7f53616c6520686173206e6f7420737461727465642079657420736f20796f752060008201527f63616e2774206765742061207072696365207965742e00000000000000000000602082015250565b6000614978603683613a9c565b91506149838261491c565b604082019050919050565b600060208201905081810360008301526149a78161496b565b9050919050565b7f53616c652068617320616c726561647920656e6465642e000000000000000000600082015250565b60006149e4601783613a9c565b91506149ef826149ae565b602082019050919050565b60006020820190508181036000830152614a13816149d7565b9050919050565b7f596f752063616e6e6f74206d696e7420302042756666616c6f732e0000000000600082015250565b6000614a50601b83613a9c565b9150614a5b82614a1a565b602082019050919050565b60006020820190508181036000830152614a7f81614a43565b9050919050565b7f45786365656473206d6178696d756d2042756666616c6f7320737570706c792e60008201527f20506c656173652074727920746f206d696e74206c6573732042756666616c6f60208201527f732e000000000000000000000000000000000000000000000000000000000000604082015250565b6000614b08604283613a9c565b9150614b1382614a86565b606082019050919050565b60006020820190508181036000830152614b3781614afb565b9050919050565b7f416d6f756e74206f6620546f6b656e206973206e6f742073756666696369656e60008201527f742e000000000000000000000000000000000000000000000000000000000000602082015250565b6000614b9a602283613a9c565b9150614ba582614b3e565b604082019050919050565b60006020820190508181036000830152614bc981614b8d565b9050919050565b6000604082019050614be56000830185613c39565b614bf26020830184613ccf565b9392505050565b600081519050614c0881613d4c565b92915050565b600060208284031215614c2457614c23613a24565b5b6000614c3284828501614bf9565b91505092915050565b6000606082019050614c506000830186613c39565b614c5d6020830185613c39565b614c6a6040830184613ccf565b949350505050565b7f4552433732314d657461646174613a2055524920717565727920666f72206e6f60008201527f6e6578697374656e7420746f6b656e0000000000000000000000000000000000602082015250565b6000614cce602f83613a9c565b9150614cd982614c72565b604082019050919050565b60006020820190508181036000830152614cfd81614cc1565b9050919050565b600081905092915050565b6000614d1a82613a91565b614d248185614d04565b9350614d34818560208601613aad565b80840191505092915050565b60008190508160005260206000209050919050565b60008154614d628161426f565b614d6c8186614d04565b94506001821660008114614d875760018114614d9857614dcb565b60ff19831686528186019350614dcb565b614da185614d40565b60005b83811015614dc357815481890152600182019150602081019050614da4565b838801955050505b50505092915050565b6000614de08286614d0f565b9150614dec8285614d0f565b9150614df88284614d55565b9150819050949350505050565b7f4f776e61626c653a206e6577206f776e657220697320746865207a65726f206160008201527f6464726573730000000000000000000000000000000000000000000000000000602082015250565b6000614e61602683613a9c565b9150614e6c82614e05565b604082019050919050565b60006020820190508181036000830152614e9081614e54565b9050919050565b7f4552433732313a206f70657261746f7220717565727920666f72206e6f6e657860008201527f697374656e7420746f6b656e0000000000000000000000000000000000000000602082015250565b6000614ef3602c83613a9c565b9150614efe82614e97565b604082019050919050565b60006020820190508181036000830152614f2281614ee6565b9050919050565b7f4552433732313a207472616e73666572206f6620746f6b656e2074686174206960008201527f73206e6f74206f776e0000000000000000000000000000000000000000000000602082015250565b6000614f85602983613a9c565b9150614f9082614f29565b604082019050919050565b60006020820190508181036000830152614fb481614f78565b9050919050565b7f4552433732313a207472616e7366657220746f20746865207a65726f2061646460008201527f7265737300000000000000000000000000000000000000000000000000000000602082015250565b6000615017602483613a9c565b915061502282614fbb565b604082019050919050565b600060208201905081810360008301526150468161500a565b9050919050565b600061505882613a2e565b915061506383613a2e565b92508282101561507657615075614616565b5b828203905092915050565b600061508c82613a2e565b915061509783613a2e565b9250827fffffffffffffffffffffffffffffffffffffffffffffffffffffffffffffffff038211156150cc576150cb614616565b5b828201905092915050565b60006150e282613a2e565b91506150ed83613a2e565b9250817fffffffffffffffffffffffffffffffffffffffffffffffffffffffffffffffff048311821515161561512657615125614616565b5b828202905092915050565b7f4552433732313a207472616e7366657220746f206e6f6e20455243373231526560008201527f63656976657220696d706c656d656e7465720000000000000000000000000000602082015250565b600061518d603283613a9c565b915061519882615131565b604082019050919050565b600060208201905081810360008301526151bc81615180565b9050919050565b7f4e487b7100000000000000000000000000000000000000000000000000000000600052601260045260246000fd5b60006151fd82613a2e565b915061520883613a2e565b925082615218576152176151c3565b5b828204905092915050565b600061522e82613a2e565b915061523983613a2e565b925082615249576152486151c3565b5b828206905092915050565b600081519050919050565b600082825260208201905092915050565b600061527b82615254565b615285818561525f565b9350615295818560208601613aad565b61529e81613ae0565b840191505092915050565b60006080820190506152be6000830187613c39565b6152cb6020830186613c39565b6152d86040830185613ccf565b81810360608301526152ea8184615270565b905095945050505050565b60008151905061530481613b78565b92915050565b6000602082840312156153205761531f613a24565b5b600061532e848285016152f5565b91505092915050565b7f4e487b7100000000000000000000000000000000000000000000000000000000600052603160045260246000fd5b7f4552433732313a206d696e7420746f20746865207a65726f2061646472657373600082015250565b600061539c602083613a9c565b91506153a782615366565b602082019050919050565b600060208201905081810360008301526153cb8161538f565b9050919050565b7f4552433732313a20746f6b656e20616c7265616479206d696e74656400000000600082015250565b6000615408601c83613a9c565b9150615413826153d2565b602082019050919050565b60006020820190508181036000830152615437816153fb565b905091905056fea26469706673582212204050274773771ea7a26fe4a4aae02e74c52e6df47191b19408593ffa715a05c864736f6c634300080a0033",
  "immutableReferences": {},
  "source": "// SPDX-License-Identifier: GPL-3.0\r\npragma solidity ^0.8.0;\r\n\r\nimport \"./ERC721Enumerable.sol\";\r\nimport \"./Ownable.sol\";\r\nimport \"./SafeMath.sol\";\r\nimport \"./IERC20.sol\";\r\n\r\n\r\n\r\ncontract Buffalos is ERC721Enumerable, Ownable {\r\n\r\n    using SafeMath for uint256;\r\n    using Strings for uint256;\r\n\r\n    // Time of when the sale starts.\r\n    uint256 public blockStart;\r\n\r\n    // Maximum amount of Buffalos in existance. \r\n    uint256 public MAX_SUPPLY;\r\n    uint256 public cost;\r\n    uint256 public maxSupply;\r\n    uint256 public maxMintAmount;\r\n    uint256 public BASE_RATE = 0.1 ether;\r\n    uint public txFeeAmount;\r\n    \r\n    address public artist;\r\n    address public txFeeToken;\r\n\r\n    string public baseURI;\r\n    string public nftName;\r\n    string public nftUnit;\r\n    string public uri;\r\n    string public metaDataExt = \".json\";\r\n\r\n    bool public mintable = true;\r\n\r\n    mapping(address => bool) public whitelisted;\r\n    mapping(address => bool) public excludedList;\r\n\r\n    event BuffaloBought (address buyer, uint256 amount);\r\n\r\n    constructor(\r\n        string memory name, \r\n        string memory symbol, \r\n        string memory URI,\r\n        uint256 initialSupply, \r\n        uint256 startDate,\r\n        address _artist,\r\n        address _txFeeToken,\r\n        uint _txFeeAmount\r\n    ) ERC721(name, symbol) {\r\n        setBaseURI(URI);\r\n        setBlockStart(startDate);\r\n\r\n        artist = _artist;\r\n        txFeeToken = _txFeeToken;\r\n        txFeeAmount = _txFeeAmount;\r\n        excludedList[artist] = true;\r\n\r\n        MAX_SUPPLY = initialSupply;        \r\n        // Mint 30 Buffalos for airdrop and gift purposes\r\n        for (uint i = 0; i < 1; i++) {\r\n            uint mintIndex = totalSupply();\r\n            _safeMint(msg.sender, mintIndex);\r\n        }\r\n    }\r\n\r\n    // public\r\n    function getNFTPrice(uint256 amount) public view returns (uint256) {\r\n        // require(block.timestamp >= blockStart, \"Sale has not started yet so you can't get a price yet.\");\r\n        // require(totalSupply() < MAX_SUPPLY, \"Sale has already ended, no more Buffalos left to sell.\");\r\n        return amount.mul(BASE_RATE);\r\n    }\r\n\r\n    function setExcluded(address excluded, bool status) external {\r\n        require(msg.sender == artist, 'artist only');\r\n        excludedList[excluded] = status;\r\n    }\r\n\r\n    function setBlockStart(uint256 startDate) public {\r\n        blockStart = startDate;\r\n    }\r\n\r\n    function updateBlockStart(uint256 startDate) public {\r\n        require(block.timestamp <= blockStart, \"Sale has already started.\");\r\n        blockStart = startDate;\r\n    }\r\n\r\n    function transferFrom(address from, address to, uint256 tokenId) public override {\r\n        require(_isApprovedOrOwner(_msgSender(), tokenId), \"ERC721: transfer caller isn't authorized\");\r\n        if(excludedList[from] == false) {\r\n            _payTxFee(from);\r\n        }\r\n        _transfer(from, to, tokenId);\r\n    }\r\n\r\n    function safeTransferFrom(address from, address to, uint256 tokenId) public override {\r\n        if(excludedList[from] == false) {\r\n            _payTxFee(from);\r\n        }\r\n        safeTransferFrom(from, to, tokenId, '');\r\n    }\r\n\r\n    function safeTransferFrom(address from, address to, uint256 tokenId, bytes memory _data) public override {\r\n        require(_isApprovedOrOwner(_msgSender(), tokenId), \"ERC721: transfer caller isn't authorized\");\r\n        if(excludedList[from] == false) {\r\n            _payTxFee(from);\r\n        }\r\n        _safeTransfer(from, to, tokenId, _data);\r\n    }\r\n\r\n    function _payTxFee(address from) internal {\r\n        IERC20 token = IERC20(txFeeToken);\r\n        token.transferFrom(from, artist, txFeeAmount);\r\n    }\r\n\r\n    /**\r\n    * @dev Mints yourself a Buffalo. Or more.\r\n    */\r\n    function mintBuffalo(uint256 numberofBuffalos) public payable {\r\n        // Some exceptions that need to be handled.\r\n        require(block.timestamp >= blockStart, \"Sale has not started yet so you can't get a price yet.\");\r\n        require(totalSupply() < MAX_SUPPLY, \"Sale has already ended.\");\r\n        require(numberofBuffalos > 0, \"You cannot mint 0 Buffalos.\");\r\n        require(SafeMath.add(totalSupply(), numberofBuffalos) <= MAX_SUPPLY, \"Exceeds maximum Buffalos supply. Please try to mint less Buffalos.\");\r\n        // require(getNFTPrice(numberofBuffalos) <= msg.value, \"Amount of Ether sent is not correct.\");\r\n        require(getNFTPrice(numberofBuffalos) <= balanceOf(msg.sender), \"Amount of Token is not sufficient.\");\r\n\r\n        // Mint the amount of provided Ladies.\r\n        for (uint i = 0; i < numberofBuffalos; i++) {\r\n            uint mintIndex = totalSupply();\r\n            _safeMint(msg.sender, mintIndex);\r\n        }\r\n        IERC20 token = IERC20(txFeeToken);\r\n        token.approve(msg.sender, getNFTPrice(numberofBuffalos));\r\n        token.transferFrom(msg.sender, artist, getNFTPrice(numberofBuffalos));\r\n\r\n        emit BuffaloBought (msg.sender, numberofBuffalos);\r\n    }\r\n\r\n    /**\r\n    * @dev Withdraw ether from this contract (Callable by owner only)\r\n    */\r\n    \r\n    function canMint(bool mintFlag) onlyOwner public {\r\n        mintable = mintFlag;\r\n    }\r\n\r\n    function withdraw(uint256 amount) onlyOwner public {\r\n        payable(msg.sender).transfer(amount);\r\n    }\r\n\r\n    /**\r\n    * @dev Changes the base URI if we want to move things in the future (Callable by owner only)\r\n    */\r\n    function changeBaseURI(string memory URI) onlyOwner public {\r\n       setBaseURI(URI);\r\n    }\r\n    /**\r\n    * @dev Changes max supply based on future drop dates (owner only)\r\n    */\r\n    function changeMaxSupply(uint256 supply) onlyOwner public {\r\n        MAX_SUPPLY = supply;\r\n    }\r\n\r\n    function updateMintPrice(uint256 price) onlyOwner public {\r\n        BASE_RATE = price;\r\n    }\r\n\r\n    function walletOfOwner(address _owner)\r\n        public\r\n        view\r\n        returns (uint256[] memory)\r\n    {\r\n        uint256 ownerTokenCount = balanceOf(_owner);\r\n        uint256[] memory tokenIds = new uint256[](ownerTokenCount);\r\n        for (uint256 i; i < ownerTokenCount; i++) {\r\n            tokenIds[i] = tokenOfOwnerByIndex(_owner, i);\r\n        }\r\n        return tokenIds;\r\n    }\r\n\r\n    // internal\r\n    function _baseURI() internal view virtual override returns (string memory) {\r\n        return baseURI;\r\n    }\r\n\r\n    function tokenURI(uint256 tokenId)\r\n        public\r\n        view\r\n        virtual\r\n        override\r\n        returns (string memory)\r\n    {\r\n        require(\r\n        _exists(tokenId),\r\n        \"ERC721Metadata: URI query for nonexistent token\"\r\n        );\r\n\r\n        string memory currentBaseURI = _baseURI();\r\n        return bytes(currentBaseURI).length > 0\r\n            ? string(abi.encodePacked(currentBaseURI, tokenId.toString(), metaDataExt))\r\n            : \"\";\r\n    }\r\n\r\n    //only owner\r\n    function setCost(uint256 _newCost) public onlyOwner {\r\n        cost = _newCost;\r\n    }\r\n\r\n    function setmaxMintAmount(uint256 _newmaxMintAmount) onlyOwner public {\r\n        maxMintAmount = _newmaxMintAmount;\r\n    }\r\n\r\n    function setBaseURI(string memory _newBaseURI) onlyOwner public {\r\n        baseURI = _newBaseURI;\r\n    }\r\n\r\n    function whitelistUser(address _user) onlyOwner public {\r\n        whitelisted[_user] = true;\r\n    }\r\n\r\n    function removeWhitelistUser(address _user) onlyOwner public {\r\n        whitelisted[_user] = false;\r\n    }\r\n\r\n}",
  "sourcePath": "D:\\projects\\github\\buffalo-nft-contract\\contracts\\Buffalos.sol",
  "compiler": {
    "name": "solc",
    "version": "0.8.10+commit.fc410830.Emscripten.clang"
  },
  "schemaVersion": "3.4.3",
  "updatedAt": "2021-11-19T03:32:16.252Z",
  "devdoc": {
    "kind": "dev",
    "methods": {
      "approve(address,uint256)": {
        "details": "See {IERC721-approve}."
      },
      "balanceOf(address)": {
        "details": "See {IERC721-balanceOf}."
      },
      "canMint(bool)": {
        "details": "Withdraw ether from this contract (Callable by owner only)"
      },
      "changeBaseURI(string)": {
        "details": "Changes the base URI if we want to move things in the future (Callable by owner only)"
      },
      "changeMaxSupply(uint256)": {
        "details": "Changes max supply based on future drop dates (owner only)"
      },
      "getApproved(uint256)": {
        "details": "See {IERC721-getApproved}."
      },
      "isApprovedForAll(address,address)": {
        "details": "See {IERC721-isApprovedForAll}."
      },
      "mintBuffalo(uint256)": {
        "details": "Mints yourself a Buffalo. Or more."
      },
      "name()": {
        "details": "See {IERC721Metadata-name}."
      },
      "owner()": {
        "details": "Returns the address of the current owner."
      },
      "ownerOf(uint256)": {
        "details": "See {IERC721-ownerOf}."
      },
      "renounceOwnership()": {
        "details": "Leaves the contract without owner. It will not be possible to call `onlyOwner` functions anymore. Can only be called by the current owner. NOTE: Renouncing ownership will leave the contract without an owner, thereby removing any functionality that is only available to the owner."
      },
      "safeTransferFrom(address,address,uint256)": {
        "details": "See {IERC721-safeTransferFrom}."
      },
      "safeTransferFrom(address,address,uint256,bytes)": {
        "details": "See {IERC721-safeTransferFrom}."
      },
      "setApprovalForAll(address,bool)": {
        "details": "See {IERC721-setApprovalForAll}."
      },
      "supportsInterface(bytes4)": {
        "details": "See {IERC165-supportsInterface}."
      },
      "symbol()": {
        "details": "See {IERC721Metadata-symbol}."
      },
      "tokenByIndex(uint256)": {
        "details": "See {IERC721Enumerable-tokenByIndex}."
      },
      "tokenOfOwnerByIndex(address,uint256)": {
        "details": "See {IERC721Enumerable-tokenOfOwnerByIndex}."
      },
      "tokenURI(uint256)": {
        "details": "See {IERC721Metadata-tokenURI}."
      },
      "totalSupply()": {
        "details": "See {IERC721Enumerable-totalSupply}."
      },
      "transferFrom(address,address,uint256)": {
        "details": "See {IERC721-transferFrom}."
      },
      "transferOwnership(address)": {
        "details": "Transfers ownership of the contract to a new account (`newOwner`). Can only be called by the current owner."
      }
    },
    "version": 1
  },
  "userdoc": {
    "kind": "user",
    "methods": {},
    "version": 1
  }
}